:020000040800F2
:10000000B010002045010008F9030008FB030008B8
:10001000FD030008FF0300080104000800000000C1
:1000200000000000000000000000000003040008C1
:100030000504000800000000070400080904000887
:100040005F0100085F0100085F0100085F01000810
:100050005F0100085F0100085F0100085F01000800
:100060005F0100085F0100085F0100085F010008F0
:100070005F0100085F0100085F0100085F010008E0
:100080005F0100085F0100085F0100085F010008D0
:100090005F0100085F0100085F0100085F010008C0
:1000A0005F0100085F0100085F0100085F010008B0
:1000B0005F0100085F0100085F0100085F010008A0
:1000C0005F0100085F0100085F0100085F01000890
:1000D0005F0100085F0100085F0100085F01000880
:1000E0005F0100085F0100085F0100085F01000870
:1000F0005F0100085F0100085F0100085F01000860
:100100005F0100085F0100085F0100085F0100084F
:100110005F0100085F0100085F0100085F0100083F
:100120005F0100085F0100085F0100085F0100082F
:10013000DFF80CD002F066FD00480047E10100083E
:10014000B01000200648804706480047FEE7FEE75B
:10015000FEE7FEE7FEE7FEE7FEE7FEE7FEE7FEE777
:100160002D2B00083101000823A002F05DFDFBE704
:1001700030B58FB001210804CDE9001000240294AD
:1001800002250491CDE907504FF4E010099068462C
:1001900001F047FA08B18C210DE00F20CDE90A05E6
:1001A0004FF48060CDE90C4002210AA80E9401F0C2
:1001B000ECFB18B1992115A0FFF7D6FF01F0ADFCBB
:1001C0004FF47A71B0FBF1F002F013FC042002F05E
:1001D00088FC00221146501E02F0C9FB0FB030BD52
:1001E00001F01AF9FFF7C4FF00F018F800F09AF8D0
:1001F00000F03EF8FEE700005F4572726F725F48E4
:10020000616E646C65720D0A000000002E2E2F5383
:1002100072632F6D61696E2E63000000124810B585
:10022000816986B041F00401816180690F4C00F062
:100230000400049000221621204601F055FE1620ED
:10024000009001200190022003906946204601F0B1
:10025000F7FC00210820CDE9000102916946204603
:1002600001F0EEFC06B010BD001002400008014095
:10027000254810B5234901604FF482714160002187
:100280008160C1604FF400720161C0E9051228224B
:10029000C0E90721416281620A21C16200F0FCF8D5
:1002A000002805D0BDE81040272118A0FFF75CBF4B
:1002B00010BD00B50068134985B0884212D11748B7
:1002C000816941F4805181618069694600F4805000
:1002D0000490A02000900220019003200390104879
:1002E00001F0AEFC05B000BD00680649884208D1A7
:1002F0000A48816921F480518161A021084801F0F8
:100300007EBD704700300140140000202E2E2F5378
:1003100072632F7370692E630000000000100240AA
:10032000000801402D4810B52B4901604FF4E13120
:100330004160002181600C22C160C0E9041281612A
:10034000C16100F0A2F9002805D0BDE810402421C9
:1003500023A0FFF709BF10BD10B500681E4986B085
:1003600088421DD12248816941F4804181618069C0
:10037000204C00F4804004904FF400700090022064
:100380000190032003906946204601F059FC0021AA
:100390002015CDE9000102916946204601F050FC8C
:1003A00006B010BD00680C49884209D11048816927
:1003B00021F4804181614FF4C0610E4801F01FBDFE
:1003C000704713B54FF6FF7301226946034800F0EA
:1003D00086FA00981CBD0000003801406C00002027
:1003E0002E2E2F5372632F75736172742E6300006B
:1003F00000100240000801407047FEE7FEE7FEE7FC
:10040000FEE770477047704710B501F023F8BDE86C
:10041000104002F073BB00001D4808B5816941F02F
:1004200001018161806900F001000090032002F069
:1004300091FA002211466FF00B0002F098FA0022A8
:1004400011466FF00A0002F092FA002211466FF096
:10045000090002F08CFA00221146501F02F087FAC0
:1004600000221146101F02F082FA00221146901E4F
:1004700002F07DFA00221146501E02F078FA05487B
:10048000416821F0E06141F00071416008BD000069
:10049000001002400000014070B5040005D00025A6
:1004A000A56294F8510010B104E0012070BD20460F
:1004B000FFF7FFFE022084F851002068016821F058
:1004C00040010160D4E901010843D4E9031211435A
:1004D000084361690843218B01F400710843E16915
:1004E0000843216A0843A16A084321680860A0699B
:1004F000042101EA1040616A0843216848602168CC
:10050000E06A08612068C16921F40061C161656524
:10051000012084F85100002070BD00002DE9F04159
:10052000044600680169E26821F440511143016109
:100530002169A0680843616908432168CA6841F2DB
:100540000C639A430243CA6020684169A26921F49E
:10055000407111434161FC4920686425322688427C
:100560003CD101F0E7FA00EBC00101EB001061683B
:100570008900B0FBF1F701F0DDFA00EBC00101EBFF
:1005800000106168B0468900B0FBF1F0B0FBF5F0F7
:100590006FF01801484307EB800106EB0110B0FB38
:1005A000F5F000F0F00601F0C5FA00EBC00101EB38
:1005B000001061688900B0FBF1F0B0FBF5F006EBCC
:1005C000001601F0B7FA00EBC00101EB0010616802
:1005D0008900B0FBF1F701F0ADFA3BE001F0A0FAC1
:1005E00000EBC00101EB001061688900B0FBF1F77E
:1005F00001F096FA00EBC00101EB00106168B04613
:100600008900B0FBF1F0B0FBF5F06FF01801484342
:1006100007EB800106EB0110B0FBF5F000F0F006EF
:1006200001F07EFA00EBC00101EB00106168890067
:10063000B0FBF1F0B0FBF5F006EB001601F070FA3C
:1006400000EBC00101EB001061688900B0FBF1F71D
:1006500001F066FA00EBC00101EB0010616889004F
:10066000B0FBF1F0B0FBF5F06FF01801484307EB79
:10067000800108EB0110B0FBF5F0216800F00F00DD
:1006800030448860BDE8F081704770B5040004D044
:1006900094F83900002510B106E0012070BD84F8FF
:1006A00038502046FFF758FE242084F8390020688F
:1006B000C16821F40051C1602046FFF72FFF206878
:1006C000016921F4904101612068416921F02A010A
:1006D00041612068C16841F40051C160E563202098
:1006E00084F8390084F83A00002070BD70B5040029
:1006F00004D094F83900002510B106E0012070BD47
:1007000084F838502046FFF727FE242084F839006B
:100710002068C16821F40051C1602046FFF7FEFE49
:100720002068016921F4904101612068416921F04C
:10073000220141612068416941F00801416120685E
:10074000C16841F40051C160E563202084F839009C
:1007500084F83A00002070BD70B50E46040004D045
:1007600094F83900002510B106E0012070BD84F82E
:1007700038502046FFF7F0FD242084F83900206827
:10078000C16821F40051C1602046FFF7C7FE206810
:10079000016921F4006101612068416921F02A01A9
:1007A00041612068016941F480410161206801696B
:1007B00021F02001314301612068C16841F40051FA
:1007C000C160E563202084F8390084F83A000020F5
:1007D00070BD2DE9F04116460F46040004D094F890
:1007E0003900002510B106E001204BE784F83850AD
:1007F0002046FFF7B1FD242084F839002068C16845
:1008000021F40051C1602046FFF788FE206801698D
:1008100021F4904101612068416921F02A01416180
:100820002068016921F00F01394301612068C16826
:1008300021F400613143C1602068C16841F4005176
:10084000C160E563202084F8390084F83A00002074
:1008500018E7704710B504000ED0242084F8390042
:100860002046FFF79FFD0020E06384F8390084F8FC
:100870003A0084F8380010BD012010BD2DE9F04188
:10088000984617460E460446069D1CE0681C1AD082
:100890002DB100F0E5FDA0EB0800A84213D92068B7
:1008A000C16821F4D071C1602068416921F0010163
:1008B0004161202084F8390084F83A00002084F84F
:1008C00038000320DEE62068006836EA000004D025
:1008D0000020B842DAD00020D4E60120F9E72DE963
:1008E000F843044690F839001F4616460D46202866
:1008F00052D1A5B19EB194F8380001284CD0012006
:1009000084F838004FF00008C4F83C80212084F8B7
:10091000390000F0A5FDA6848146E68428E0012088
:10092000BDE8F883E08C401EE084A0684B46B0F53B
:10093000805F4FF000024FF080012046009705D005
:10094000FFF79CFFF8B90FE000380140FFF796FF72
:10095000C8B928882168C0F308004860206908B138
:100960006D1C05E0AD1C03E0216815F8010B486023
:10097000E08C0028D6D14B4600224021204600972B
:10098000FFF77CFF08B10320CAE7202084F8390074
:1009900084F838800020C3E70220C1E72DE9F8433E
:1009A000044690F83A00994616460D4620284ED146
:1009B00095B18EB194F83800012848D0012084F810
:1009C00038000027E763222084F83A0000F048FD51
:1009D000A6858046E68530E00120A1E7E08D401E37
:1009E000E085A0684346B0F5805F4FF000024FF00D
:1009F00020012046CDF8009004D0FFF73FFF98B1CA
:100A000003208DE7FFF73AFF0028F9D1206900287D
:100A10002068406803D0C1B225F8011B0DE0C0F387
:100A2000080125F8021B08E02069002820684068BA
:100A300001D000F07F0005F8010BE08D0028CDD13A
:100A4000202084F83A0084F83870002068E70220FB
:100A500066E790F83930202B18D1A9B1A2B190F8EF
:100A60003830012B12D001628284C2840021C1631C
:100A7000212280F8392080F838100068C16841F0E0
:100A80008001C1600020704701207047022070473C
:100A900090F83A30202B22D1F9B1F2B190F83830E9
:100AA000012B1CD081628285C2850021C163222274
:100AB00080F83A2080F838100168CA6842F48072E1
:100AC000CA6001684A6942F001024A610068C1686F
:100AD00041F02001C16000207047012070470220D2
:100AE0007047704770B5446A2068406994F83910BF
:100AF000C0F3C0100025212904D118B1E584204697
:100B000000F02EFC2068406994F83A10C0F3801081
:100B1000222904D118B1E585204600F013FCE06BD2
:100B200040F01000E0632046FFF7DBFF70BD704728
:100B300010B5406AFFF7FBFF10BD704710B50146C6
:100B4000406A0968096889060CD40021C1840168DB
:100B50004A6922F080024A610068C16841F04001A0
:100B6000C16010BDFFF7E9FF10BD70B5044690F8F5
:100B70003900202830D169B362B394F838000128D5
:100B80002AD0012084F838002162A284E284002562
:100B9000E563212084F83900236BFD489862236BBC
:100BA000FC48D862236BFC481863206B13464563EE
:100BB0002668206B321D01F080FA21686FF040003A
:100BC000086084F838502068416941F08001416133
:100BD000002070BD012070BD022070BD704710B5AF
:100BE000406AFFF7FBFF10BD704710B50146406A31
:100BF00009680968890613D40021C1850168CA689B
:100C000022F48072CA6001684A6922F001024A61D6
:100C100001684A6922F040024A61202180F83A10B6
:100C2000FFF7E2FF10BDF8B5044690F83A0020281F
:100C30003CD1C1B3BAB394F83800012836D00120B2
:100C400084F83800A162A2850025E563222084F89B
:100C50003A00636BD1489862636BD148D862636B8A
:100C6000CD481863606B134645630846666B216880
:100C700002463046091D01F020FA206801684168EB
:100C8000009184F83850C16841F48071C1602068D7
:100C9000416941F0010141612068416941F0400131
:100CA00041610020F8BDFFE70120FBE70220F9E7E2
:100CB00090F8381001290BD0012180F83810016814
:100CC0004A6990F83930C2F3C012212B02D006E0F5
:100CD000022070471AB14A6922F080024A61016815
:100CE0004A6990F83A30C2F38012222B0ED16AB1D1
:100CF000CA6822F48072CA6001684A6922F001025F
:100D00004A6101684A6922F040024A61002180F884
:100D100038100846704708B590F83810012907D0F8
:100D2000012180F8381090F83910212902D006E00E
:100D3000022008BD01684A6942F080024A6190F8C9
:100D40003A100022222911D101680B684B680093E8
:100D5000CB6843F48073CB6001684B6943F00103B7
:100D60004B6101684B6943F040034B6180F83820C8
:100D7000002008BD10B504460068416994F8392088
:100D8000C1F3C011212A0BD151B1416921F0800179
:100D90004161206B08B101F0C8F9204600F0E0FA8B
:100DA0002068416994F83A20C1F38011222A0BD1BE
:100DB00051B1416921F040014161606B08B101F01E
:100DC000B4F9204600F0BEFA002010BD70B504460C
:100DD0000068C16821F4F071C1602068416921F0A8
:100DE00001014161206841694FF00005090609D5FC
:100DF000416921F080014161206B18B14563206B8E
:100E000001F093F920684169490609D5416921F04B
:100E100040014161606B18B14563606B01F085F979
:100E2000E584E585E563202084F83A0084F83900FC
:100E3000002070BD70B504460068C16821F0C00193
:100E4000C160206841694FF00005090609D5416974
:100E500021F080014161206B18B14563206B01F0E6
:100E600064F9E584202084F83900002070BD70B555
:100E700004460068C16821F49071C160206841692E
:100E800021F001014161206841694FF000054906E8
:100E900009D5416921F040014161606B18B145639A
:100EA000606B01F042F9E585202084F83A000020CB
:100EB00070BD704710B5406A0021426B5163026BF0
:100EC00012B1526B002A09D1C184C185C1632021AE
:100ED00080F8391080F83A10FFF7EBFF10BD10B51D
:100EE000406A0021026B5163426B12B1526B002ABF
:100EF00009D1C184C185C163202180F8391080F8EF
:100F00003A10FFF7D6FF10BD70B504460068012601
:100F1000C16821F4F071C1602068416921F00101CC
:100F20004161206B002538B121684969090602D565
:100F30001C49416300E04563606B38B12168496931
:100F4000490602D51849416300E0456320684169BC
:100F500009060CD5416921F080014161206B30B157
:100F600001F0FBF810B1206B456300E0002620681B
:100F7000416949061AD5416921F040014161606B20
:100F8000A0B101F0EAF8E8B1606B45630FE0000042
:100F90003D0B0008310B0008E50A0008EB0B0008C8
:100FA000DF0B0008DF0E0008B50E000856B1E5841F
:100FB000E585E563202084F8390084F83A0020466E
:100FC000FFF777FF002070BD704710B5406A002121
:100FD000C184202180F83910FFF7F6FF10BD10B54D
:100FE00004460068C16821F0C001C1602068416901
:100FF0004FF020020B064FF000010FD5436923F09C
:1010000080034361206B48B1F2494163206B01F0DA
:10101000A4F848B1206B416B884705E0E18484F86F
:1010200039202046FFF7D0FF002010BD704710B5D3
:10103000406A0021C185202180F83A10FFF7F6FFB1
:1010400010BD10B504460068C16821F49071C160FC
:101050002068416921F001014161206841694FF038
:1010600020024B064FF000010FD5436923F04003E7
:101070004361606B48B1D8494163606B01F06DF822
:1010800048B1606B416B884705E0E18584F83A2000
:101090002046FFF7CBFF002010BD10B5406A0021AD
:1010A000C185C184FFF71DFD10BD10B590F83A1041
:1010B000222901D0022010BD8168B1F5805F11D0D6
:1010C0000169002901681FD0496801F07F03816A26
:1010D0004A1C82620B70C18D491E0904090CC1852E
:1010E00018D02BE00269816A002A0268526805D094
:1010F000D2B20A80816A491C8162ECE7C2F308021D
:101100000A80816A891CF7E74A68816A4B1C8362FE
:101110000A70E0E70168CA6822F02002CA6001682C
:10112000CA6822F48072CA6001684A6922F001022A
:101130004A61202180F83A10FFF756FD002010BDCB
:1011400070B5026804461068D168536910F00F0F3B
:1011500050D003F0010501F4907635435CD0C2070E
:1011600005D0CA0503D5E26B42F00102E2634207F3
:1011700005D5DA0703D0E26B42F00202E263820790
:1011800005D5DA0703D0E26B42F00402E2630207FE
:1011900005D5DA0703D0E26B42F00802E263E26BA6
:1011A000002A32D0800604D5880602D52046FFF7F3
:1011B0007CFF20684069E16BC0F38010090700D410
:1011C00020B3204600F0BEF820684169490619D5D1
:1011D000416921F040014161606B98B17F494163F1
:1011E000606B00F0BAFF00280FD0606B416BBDE868
:1011F0007040084783060FD58B060DD52046BDE805
:10120000704052E72046FFF76CFC70BD2046FFF7A8
:1012100068FC0020E06370BD030606D50B0604D50C
:101220002046BDE8704000F0A4B84006F3D548065B
:10123000F1D5D168204621F04001D160202184F809
:101240003910FFF77AFC70BD90F83810012910D0E2
:10125000012100F8381F2421417050F8381CCA6859
:1012600042F00102CA60202141700021017008464D
:1012700070470220704790F83810012910D00121E2
:1012800000F8381F2421417050F8381CCA6842F019
:101290000202CA6020214170002101700846704797
:1012A0000220704790F83810012910D0012100F871
:1012B000381F2421417050F8381CCA6822F00202FD
:1012C000CA60202141700021017008467047022049
:1012D000704790F83810012912D0012100F8381F0A
:1012E0002421417050F8381CCA6822F00C0242F0E8
:1012F0000802CA6020214170002101700846704731
:101300000220704790F83810012912D0012100F80E
:10131000381F2421417050F8381CCA6822F00C0292
:1013200042F00402CA602021417000210170084689
:1013300070470220704710F8391F40780843704703
:10134000C06B70470168CA6822F49072CA60016875
:101350004A6922F001024A61202180F83A10704760
:101360000168CA6822F0C002CA60202180F83910E2
:10137000704790F83910212901D002207047816808
:10138000B1F5805F016A0BD04A1C026202680978DD
:101390005160C18C491E0904090CC1840ED017E0AC
:1013A00009880268C1F30801516001690029016AD6
:1013B00002D0491C0162ECE7891CFBE70168CA689E
:1013C00022F08002CA600068C16841F04001C1603B
:1013D00000207047CB0F00082F1000089B1000085A
:1013E000704770B5554D04464FF47A712878B1FBBB
:1013F000F0F053490968B1FBF0F001F0FAFA48B98E
:10140000102C07D200222146501E01F0B0FA002015
:101410006C6070BD012070BD4A4810B5016841F094
:1014200010010160032001F095FA0020FFF7D9FFB9
:10143000FEF7F2FF002010BD7047434810B54FF093
:10144000FF31C16000220261C160C260FFF7F4FF9A
:10145000002010BD394881680278114481607047CE
:10146000364880687047354840687047334A10B541
:101470000146137800208B4203D011705068FFF7AB
:10148000B0FF10BD2D480078704770B50446FFF7D7
:10149000E7FF0546601C02D0284800780444FFF7A7
:1014A000DFFF401BA042FAD370BD4FF0E02001697E
:1014B00021F00201016170474FF0E020016941F025
:1014C0000201016170472148704721480068000C03
:1014D00070471F480068C0F30B0070471C48416804
:1014E00041F00101416070471948416821F0010154
:1014F000416070471648416841F002014160704701
:101500001348416821F0020141607047104841686A
:1015100041F00401416070470D48416821F0040129
:10152000416070470B49096801600A49091D096853
:101530004160084908310968816070470000002057
:101540000C000020002002400010024000020101B7
:10155000002004E0E8F7FF1F2DE9F041FFF780FFCE
:10156000FD4C0546206840F00100206005E000BF0A
:10157000FFF776FF401B022843D820688007F7D585
:10158000206820F0F80040F080002060FFF768FF3E
:1015900000250646656041F2883704E0FFF760FFEA
:1015A000801BB8422DD8606810F00C0FF6D1EC49C2
:1015B000EA4808600020FFF714FF10B10120BDE8E1
:1015C000F081FFF74DFF0646206820F08070206014
:1015D00005E000BFFFF744FF801B022811D82068F8
:1015E0008001F7D46560FFF73BFF0646206820F4D2
:1015F0001020206007E000BFFFF732FF801B642847
:1016000001D90320DBE720688003F5D4206820F4AB
:1016100080202060606A40F080706062A5600020D9
:10162000CDE72DE9F84F04460078CB4DC00749D0EF
:101630006868C0F38100012807D06868C0F38100A2
:10164000022809D16868C00306D52868800339D507
:101650006068002870D035E06068B0F5803F0BD03E
:1016600010B1B0F5A02F11D0286820F48030286088
:10167000286820F4802002E0286840F48030286048
:10168000606890B1FFF7ECFE06460AE0286840F477
:1016900080202860F0E700BFFFF7E2FE801B64288F
:1016A00075D828688003F7D50CE0FFF7D9FE064609
:1016B00005E000BFFFF7D4FE801B6428F0D828683F
:1016C0008003F7D42078A74E80074FF001094FF030
:1016D00000083BD5686810F00C0F07D06868C0F3AD
:1016E0008100022809D16868C00306D428688007F1
:1016F00014D5206901281FD110E02069B0B1C6F8C7
:101700000090FFF7ADFE074605E000BFFFF7A8FE1B
:10171000C01B0228C4D828688007F7D528686169EB
:1017200020F0F80040EAC10028600FE0C6F8008011
:10173000FFF796FE074606E0E9E000BFFFF790FEE0
:10174000C01B022823D828688007F7D42078000718
:101750002CD58548A169D9B1C0F80090FFF780FE6B
:10176000074604E0FFF77CFEC01B02280FD8686A1A
:101770008007F7D57A484FF4FA510068B0FBF1F0D2
:10178000009000BF0098411E0091FAD20EE080E068
:10179000C0F80080FFF764FE074604E0FFF760FE34
:1017A000C01B022875D8686A8007F7D420784007E4
:1017B00060D5E8690027C00008D4E86940F080508F
:1017C000E861E869012700F08050009067480168EF
:1017D000C90513D40168834641F480710160FFF7A5
:1017E0003FFE824606E000BFFFF73AFEA0EB0A008C
:1017F00064284ED8DBF80000C005F5D5E068012864
:101800000AD008B1052813D0286A20F00100286208
:10181000286A20F0040002E0286A40F001002862F3
:10182000E06841F2883B98B1FFF71AFE82460BE070
:10183000286A40F004002862EEE700BFFFF710FEC0
:10184000A0EB0A0159455AD8286A8007F6D50CE062
:10185000FFF706FE824605E0FFF702FEA0EB0A0155
:1018600059454CD8286A8007F6D41FB1E86920F0A2
:101870008050E861E06988B36968C1F38101022999
:1018800045D00228C6F8608004D0FFF7E9FD044681
:1018900038E034E0FFF7E4FD074604E0FFF7E0FD41
:1018A000C01B02282BD828688001F7D4206AB0F525
:1018B000803F05D16868A16820F400300843686063
:1018C000D4E908010843696821F474110843686089
:1018D000C6F86090FFF7C4FD044606E015E000BFBF
:1018E000FFF7BEFD001B022809D828688001F7D544
:1018F0000BE000BFFFF7B4FD001B022802D9032054
:10190000BDE8F88F28688001F4D40020F8E70120B2
:10191000F6E717A185B00FC98DE80F0018A00E4A91
:101920000068049051680D4801F00C03042B10D09E
:10193000082B0ED1C1F38343C9031DF8030021D541
:10194000516804AAC1F34041515C044A5043B0FBC2
:10195000F1F005B0704700000010024000127A005C
:101960000C0000200000424280044242007000400F
:1019700002030405060708090A0B0C0D0E0F1010D0
:1019800001020000A6494843E3E72DE9F047DFF8EC
:10199000948205460E46D8F8000000F00700B042D9
:1019A0000CD2D8F8001021F007013143C8F800101C
:1019B000D8F8000000F00700B04262D128789A4CB5
:1019C000800705D56068A96820F0F00008436060D2
:1019D0002878C00744D06868012816D021680228FA
:1019E00016D0890700294CDA616821F00301014310
:1019F0006160FFF735FD6968074641F288300129CB
:101A00000ED00229814618D026E021688903E9E733
:101A10008901E7E7FFF724FDC11B494501D918E01B
:101A200081466068C0F381000128F3D118E000BF4F
:101A3000FFF716FDC11B49450BD86068C0F3810054
:101A40000228F5D10CE000BFFFF70AFDC11B494594
:101A500002D90320BDE8F087606810F00C0FF3D1C5
:101A6000D8F80010404601F00701B1420BD90168D7
:101A700021F0070131430160006800F00700B04227
:101A800001D00120E6E72878400705D56068E968BD
:101A900020F4E060084360602878000706D560689D
:101AA000296920F4605040EAC1006060FFF731FF0F
:101AB00061685E4AC1F30311515CC8405C4908602B
:101AC0000020FFF78EFC0020C4E730B585B0002071
:101AD00002900220019003200390534C4FF4807039
:101AE0000090A0690D4640F00400A061A06969461D
:101AF00000F0040004904F4800F0A2F8606820F065
:101B0000E0602843606005B030BD4B490120C864E7
:101B1000704749490020C8647047454800687047CD
:101B20004348414900684968444AC1F30221515C75
:101B3000C84070473E483C49006849683F4AC1F385
:101B4000C221515CC840704710B50F210160364971
:101B50000A6853034FF0000202D54FF4A02304E0BB
:101B60000B68DB0303D54FF48033436000E0426031
:101B70004B6803F4003383600B68DC074FF001030C
:101B800001D0036100E002610C68C4F3C404446145
:101B90000C6A640702D50524C46005E00C6AE407FA
:101BA00001D0C36000E0C2604C6AE40701D08361E9
:101BB00000E082610A68D20102D50222C26100E01F
:101BC000C3614A6802F480320262496801F470110C
:101BD000416210BD0F220260134A536803F00303F1
:101BE0004360536803F0F0038360536803F4E063D9
:101BF000C36052684FF4E06303EAD202026109480D
:101C0000006800F0070008607047704710B5064C88
:101C1000A068000603D5FFF7F8FF8020A07210BD72
:101C200000093D000020024000100240202E000864
:101C30000C0000200008014000004242302E000845
:101C40002DE9F84FDFF8ECA200220AF1040B14464C
:101C500001274FF00F090BF1040E00BF0B6807FAC4
:101C600004F52B40AB4274D1DFF8CCC24E68A6EB32
:101C70000C0866452BD00DDC032E34D005DC36B3C2
:101C8000012E19D0022E2FD11BE0112E16D0122EAC
:101C90002AD119E0B8F5881F19D006DCB8F5803FC5
:101CA00015D0B8F5801F1FD111E0B8F5001F0ED078
:101CB000B8F5041F18D10AE0CA6815E0CA68121DF9
:101CC00012E0CA6808320FE0CA680C320CE08A6879
:101CD0002AB1012A4FF0080203D0456104E0042232
:101CE00002E0056100E00022FF2B01D8064601E07A
:101CF00000F104064FEA840501D9A5F12005D6F8C4
:101D000000C009FA05F82CEA080C02FA05F54CEABD
:101D1000050CC6F800C04D68ED006AD5874DAE6968
:101D200046F00106AE61AD6924F0030605F0010539
:101D30000095834D06EB050CDCF80850A6074FEA2A
:101D4000167809FA08F6B5437E4EB04202D1002655
:101D50001AE04EE07C4EB04201D1012614E07B4EE9
:101D6000B04201D102260FE0794EB04201D10326E4
:101D70000AE0784EB04201D1042605E0764EB0422A
:101D800001D1052600E0062606FA08F62E43CCF817
:101D900008604D68DAF80060ED03554601D51E4332
:101DA00000E09E432E604D68AD0305D5DBF8006072
:101DB0001E43CBF8006004E0DBF800509D43CBF8F5
:101DC00000504D68DEF80060ED02754601D51E43F7
:101DD00000E09E432E604D68AD0205D5554D0C3593
:101DE0002E681E432E6004E0524E0C3635689D432B
:101DF0003560641C102CFFF431AFBDE8F88F2DE97D
:101E0000F04300230F24DFF838C163E001229A4039
:101E10000A405ED0FF2A01D8074601E000F104071E
:101E20004FEA830601D9A6F12006D7F8008004FA0C
:101E300006F54FF0040928EA050809FA06F948EA08
:101E40000908C7F80080C56825EA0205C56023F0C7
:101E500003056544AF684FEA83764FEA167604FAC5
:101E600006F909EA0708374FB84201D1002719E0FF
:101E7000354FB84201D1012714E0344FB84201D1A7
:101E800002270FE0324FB84201D103270AE0314F59
:101E9000B84201D1042705E02F4FB84201D10527F0
:101EA00000E00627B740474513D1AF6827EA090786
:101EB000AF60204D2E6896432E602D1D2E689643F0
:101EC0002E602D1D2E6896432E602D1D2E68964384
:101ED0002E605B1C31FA03F298D1BDE8F083806874
:101EE000084000D0012070470AB101617047090421
:101EF000FBE7C2684A40C260704708B541F48032CF
:101F0000009282618161009981618169009180699B
:101F1000C00301D5002008BD012008BD7047054958
:101F200010B514310A68024202D00860FFF7F6FFCC
:101F300010BD00000004014000001110001002401C
:101F40000000014000080140000C01400010014069
:101F50000014014000180140001C014030B560B180
:101F6000FA4A03681421934209D2F94A1A44B2FB8F
:101F7000F1F189000164F7490AE0012030BDF34A1C
:101F800052421A44B2FBF1F189000164EF49083969
:101F9000C163022180F821101A6843F6F0718A4368
:101FA000F0E901142143D0E902452C43214304699F
:101FB000214344692143846921431143196000216D
:101FC00041628162C162016341630122427701770C
:101FD000084630BD10B5D0B101680A6822F0010290
:101FE0000A60026800211160026851600268916015
:101FF0000268D160D54C02681423A24209D2D44CA5
:102000002244B2FBF3F292000264D24A0AE00120B9
:1020100010BDCE4C64422244B2FBF3F29200026443
:10202000CA4A083AC26390F8403001229A40C36B12
:102030005A60816380F8211080F82010002010BDC4
:1020400030B590F840500124AC40C56B6C6004681A
:1020500063604368102B036803D099600068C26016
:1020600030BD9A600068C16030BD70B5044690F81C
:102070002000002501280CD0012084F8200094F8CD
:1020800021600020012E06D084F820000225284679
:1020900070BD022070BD022684F82160A063206814
:1020A000066826F0010606602046FFF7C9FF206893
:1020B000016841F001010160E9E770B5044690F85C
:1020C0002000002501280CD0012084F8200094F87D
:1020D00021600020012E06D084F820000225284629
:1020E00070BD022070BD022684F82160A0632068C4
:1020F000066826F0010606602046FFF7A1FFE06AA9
:1021000000282068016802D041F00E0106E021F0AD
:10211000040101602068016841F00A010160206843
:10212000016841F001010160D9E701680A6822F005
:102130000E020A6001680A6822F001020A6090F843
:102140004020C36B012101FA02F25A6080F821108D
:10215000002180F82010084670472DE9F05F90F8C4
:1021600021100024022903D004218163012485E089
:1021700001680A6822F00E020A6001680A6822F00B
:1021800001020A60734E734F8036B215DFF8C4C186
:10219000DFF8C091DFF8BCA1DFF8B8B1DFF8B4E137
:1021A00001680837130115020CF11C0C09F1300904
:1021B0000AF1440A0BF1580B0EF16C0E4FF4801823
:1021C000B14227D9B9420ED0614512D049451DD040
:1021D000514518D0594518D0714501D1424615E0F6
:1021E0005A4EB14201D1012210E0584E1436B1428C
:1021F00001D110220AE0554E2836B14206D0534A8A
:102200003C32914201D11A4600E02A464F49091F4B
:102210000A602AE0B94213D0614517D0494522D05F
:1022200051451DD059451DD0714501D142461AE096
:10223000B14202D14FF0807215E0444EB14201D15B
:10224000012210E0414E1436B14201D110220AE0C1
:102250003E4E2836B14206D03C4A3C32914201D132
:102260001A4600E02A463B494A60012180F82110C5
:10227000002180F82010416B01B188472046BDE85D
:10228000F09F2DE9F74F044690F8210082B0022814
:1022900005D00420A063002084F82000FDE0206821
:1022A0000168890603D54FF48070A063F5E0294DDD
:1022B000284E03991C353036DFF89880DFF894906B
:1022C000DFF890A0002924494FF4806B08F14408FE
:1022D00009F158090AF16C0A03D088423ED104275B
:1022E00058E0884201D1022754E0A84201D12027BA
:1022F00050E0B04203D100BF4FF400774AE04045C0
:1023000003D100BF4FF4005744E0484503D100BF5C
:102310004FF400373EE0504502D14FF4001739E04A
:102320000D497831884201D1870433E0074988425A
:10233000D9D0064914318842D9D00449283188427D
:10234000DAD002493C318842E2D1DBE7080402409E
:10235000F8FFFDBF0000024008000240A84201D182
:10236000402717E0B04201D15F4613E0404502D15B
:102370004FF480470EE0484503D100BF4FF480275B
:1023800008E0504502D14FF4800703E0F649884247
:1023900004D1C704FFF764F8009082E0F349884253
:1023A0009DD0F24914318842DAD0F0492831884270
:1023B000DAD0EE493C318842E0D1D9E7884228D9C9
:1023C000EA4908390A68E8497839884210D0A842B1
:1023D00010D0B04214D0404515D0484516D05045D5
:1023E00003D100BF4FF4000027E0E049884234D118
:1023F000082022E0802020E0DC492831884231D1C9
:102400004FF4006019E04FF4004016E04FF4002054
:1024100013E0D54A803A1268D34B783B9842E7D014
:10242000A842E7D0B042EBD04045ECD04845EDD0D3
:102430005045D7D08842D8D11806024217D094F818
:102440004010E26B012000FA01F1516054F8381F8E
:1024500041F0010144F818191CE0C44914318842C4
:10246000CAD1C7E7C1493C318842CFD1CBE70498F4
:10247000401C16D0049830B1FEF7F2FF0099411AC3
:10248000049881420DD954F8380F40F0200044F8E8
:1024900018090120607000202070012005B0BDE8FF
:1024A000F08FB1492068884202D9B04A083A01E069
:1024B000AD4A803A12683A4280D0AC4A0399121F62
:1024C0000029A94911D0884275D9A749783988428D
:1024D0007BD0A8427FD0B04270D040456FD04845F5
:1024E0006ED050456ED1C80486E088422CD99E49F2
:1024F000783988420ED0A84212D0B04216D040455A
:102500001BD048451CD0504501D188041AE097499A
:10251000884201D1022015E094491431884201D14A
:1025200020200FE091492831884202D14FF40070F9
:1025300008E08E493C31884202D14FF4005001E05E
:102540004FF40030106032E0874A783A904213D05E
:10255000A84217D0B0421BD0404520D0484521D0DA
:10256000504501D190041FE0884202D14FF0007025
:102570001AE07E49884201D1022015E07B491431DE
:10258000884201D120200FE078492831884202D1C9
:102590004FF4007008E075493C31884202D14FF495
:1025A000005001E04FF400306F498039486001204D
:1025B00084F8210054E021E007E00CE011E016E08F
:1025C00018E0FFE76949884201D1042014E0674917
:1025D0001431884201D140200EE0644928318842FC
:1025E00001D1584608E061493C31884202D14FF49C
:1025F000804001E04FF48020106031E05A4A783A80
:10260000904213D0A84217D0B0421BD040451FD0F3
:10261000484520D0504501D1D0041EE0884202D167
:102620004FF0806019E05149884201D1042014E044
:102630004E491431884201D140200EE04B492831E7
:10264000884201D1584608E048493C31884202D1CD
:102650004FF4804001E04FF48020434980394860C6
:10266000002084F8200019E72DE9F05FC16B0A68AB
:1026700001680B68046C4FF0040808FA04F83C4D3C
:102680003C4E3D4FDFF8F4C0DFF8F490DFF8F4A0E3
:10269000DFF8D8B0DFF8F0E018EA020F76D05FEA92
:1026A000437873D50A68920603D40A6822F00402BC
:1026B0000A604FF48062DFF8B080016813011402F1
:1026C000414524D9A9420DD0B1420FD0B9421AD008
:1026D000614515D0494515D0514501D1120312E08D
:1026E000594501D104220EE0714501D140220AE092
:1026F000254D1435A94206D0234A2832914201D1F2
:102700001A4600E022461949091F0A6029E0A94239
:1027100013D0B14215D0B94220D061451BD04945F4
:102720001BD0514502D14FF4800217E0414502D140
:102730004FF0806212E0594501D104220EE071454C
:1027400001D140220AE0104D1435A94206D00E4AAC
:102750002832914201D11A4600E022460449083944
:102760004A60C16A80E011E0800002400804024033
:10277000080002401C0002403000024044000240B9
:10278000580002406C0002401C0402404FF0020856
:1027900008FA04F818EA020F6BD05FEA837868D56C
:1027A0000A68920606D40A6822F00A020A60012129
:1027B00080F821104FF40072DFF890810168130156
:1027C0001402414523D9A9420DD0B1420FD0B942DC
:1027D00019D0614514D0494514D0514501D1120397
:1027E00011E0594501D102220DE0714501D12022AD
:1027F00009E0574DA94206D0554A1432914201D101
:102800001A4600E0224652492C390A6028E0A942C3
:1028100013D0B14215D0B9421FD061451AD04945F5
:102820001AD0514502D14FF4001216E0414502D1B1
:102830004FF0007211E0594501D102220DE07145BF
:1028400001D1202209E0424DA94206D0404A14326B
:10285000914201D11A4600E022463C4980394A6043
:10286000002180F82010816A00291BD0BDE8F05FAC
:1028700008470825A540154214D01A0712D50A6842
:1028800022F00E020A6090F84020C36B012101FA89
:1028900002F25A60816380F82110002180F8201034
:1028A000016BE1E7EBE410B590F820400023012C28
:1028B00007D0012480F8204090F82140012C02D05C
:1028C00008E0022010BD59B101290BD002290BD01C
:1028D00003290BD00123002180F82010184610BDD9
:1028E0008262F8E7C262F6E70263F4E74263F2E766
:1028F00010B590F820200023012A08D0012280F88A
:10290000202090F821400022012C02D014E0022067
:1029100010BD052910D2DFE801F0030507090B00FF
:1029200082620AE0C26208E0026306E0426304E0F9
:102930008262C2620263F9E7012380F82020184610
:1029400010BD90F821007047806B704780000240F6
:1029500030040240734900F0070208684FF6FF0395
:10296000184040EA0220704A104308607047F0B4F3
:102970006C4B1B680C46C3F30223C3F10705042DFF
:1029800000D90425191D072901D2002300E0DB1E10
:10299000012606FA05F1491E214099409E40761E07
:1029A00016403143F0BC00F0ADB800F01F02012129
:1029B00091404009800000F1E020C0F8001170470C
:1029C00000F01F02012191404009800000F1E02049
:1029D000C0F880117047BFF34F8F52480168524AC8
:1029E00001F4E061121D11430160BFF34F8F00BF7E
:1029F000FDE710B5401EB0F1807F01D3012010BD6E
:102A00004FF0E02460610F21601700F07BF8002098
:102A1000A06107202061002010BD42480068C0F37B
:102A20000220704770B5002806DA00F00F0000F1B0
:102A3000E02090F8140D03E000F1E02090F800048D
:102A4000040901F00700C0F10705042D00D9042591
:102A5000011D072901D2002000E0C01E012124FA37
:102A600000F601FA05F56D1E2E408140491E2140F9
:102A70001660196070BD00F01F02012191404009ED
:102A8000800000F1E020C0F8001270474109890081
:102A900001F1E021D1F8001200F01F020120904066
:102AA000014201D0012070470020704700F01F0252
:102AB000012191404009800000F1E020C0F880121F
:102AC00070474109890001F1E021D1F8001300F0BD
:102AD0001F0201209040014201D0012070470020D8
:102AE00070474FF0E0210428086903D020F004006B
:102AF0000861704740F00400FAE7704710B5FFF72F
:102B0000FCFF10BD0907090E002806DA00F00F00CF
:102B100000F1E02080F8141D704700F1E02080F8FB
:102B2000001470470CED00E00000FA05224801682F
:102B300041F0010101604168204A11404160016893
:102B40001F4A11400160016821F480210160416841
:102B500021F4FE0141604FF41F0181601949C00357
:102B600008607047144910B54868174A10F00C0304
:102B7000164803D0042B01D0082B09D00260496805
:102B8000134AC1F30311515C0268CA40026010BDD0
:102B90004A684B6802F470124FF0020413F4803F4D
:102BA00004EB924202D04B689B0301D5094B00E035
:102BB000054B5A43E2E70000001002400000FFF816
:102BC000FFFFF6FE08ED00E000127A000C00002086
:102BD000202E000800093D0030B50B4601460020BC
:102BE0002022012409E021FA02F59D4205D303FACF
:102BF00002F5491B04FA02F52844151EA2F1010250
:102C0000F1DC30BD064C074D06E0E06840F0010302
:102C100094E8070098471034AC42F6D3FDF78CFADD
:102C2000382E0008582E00080FB4054B10B503A924
:102C3000044A029800F018F810BC5DF814FB00007C
:102C4000C30300081000002002E008C8121F08C1DA
:102C5000002AFAD170477047002001E001C1121F1D
:102C6000002AFBD1704700002DE9FF4F8BB09A4638
:102C70000F460546002606E025280BD052460D9942
:102C800090476D1C761C28780028F5D10FB030468F
:102C9000BDE8F08F0024A0460122604900E0044313
:102CA00015F8013F203B02FA03F00842F7D12878DB
:102CB0002E2817D115F8010F44F004042A280ED04D
:102CC0006FF02F022878A0F1300109290AD808EB0B
:102CD000880102EB410100EB01086D1CF2E757F897
:102CE000048B6D1C287869283ED006DC0028CDD0E6
:102CF00063280BD0642804D136E0732810D07528DF
:102D00004BD052460D999047761C85E017F8040B7E
:102D10008DF8000000208DF80100E946012003E055
:102D200057F8049B4FF0FF3061074FF0000401D4C7
:102D30000AE0641C44450DDA8442FADB19F80410F9
:102D40000029F6D106E0641C8442FCDB19F804106B
:102D50000029F8D1264404E019F8010B52460D99D8
:102D60009047641EF8D257E001CF4FF00A0B0028BD
:102D700002DA40422D2102E0210504D52B218DF8F5
:102D80002410012103E0E10705D02021F7E70DF130
:102D9000200908910CE00021F9E701CF4FF00A0B60
:102DA000F9E75946FFF718FF01F1300209F8012D44
:102DB0000028F6D1ADEB090000F1200B600701D42B
:102DC0004FF00108D84502DDA8EB0B0000E0002021
:102DD0008046002406E009A85246005D0D99904700
:102DE000641C761C08988442F5DB04E030205246CF
:102DF0000D999047761CB8F10001A8F10108F5DCA7
:102E000005E019F8010B52460D999047761CBBF16D
:102E10000001ABF1010BF4DC6D1C34E70928010063
:102E2000000000000000000001020304060708097A
:102E30000000000001020304582E000800000020DA
:102E400014000000482C00086C2E0008140000201C
:102E50009C100000582C0008010000001000000029
:0C2E60000000000000A24A040000000076
:0400000508000131BD
:00000001FF
